{
  "contractName": "TradeConnectDIDRegistry",
  "abi": [
    {
      "anonymous": false,
      "inputs": [
        {
          "indexed": true,
          "internalType": "address",
          "name": "identity",
          "type": "address"
        },
        {
          "indexed": false,
          "internalType": "bytes32",
          "name": "name",
          "type": "bytes32"
        },
        {
          "indexed": false,
          "internalType": "bytes",
          "name": "value",
          "type": "bytes"
        },
        {
          "indexed": false,
          "internalType": "uint256",
          "name": "validTo",
          "type": "uint256"
        },
        {
          "indexed": false,
          "internalType": "uint256",
          "name": "previousChange",
          "type": "uint256"
        }
      ],
      "name": "DIDAttributeChanged",
      "type": "event"
    },
    {
      "anonymous": false,
      "inputs": [
        {
          "indexed": true,
          "internalType": "address",
          "name": "identity",
          "type": "address"
        },
        {
          "indexed": false,
          "internalType": "bytes32",
          "name": "delegateType",
          "type": "bytes32"
        },
        {
          "indexed": false,
          "internalType": "address",
          "name": "delegate",
          "type": "address"
        },
        {
          "indexed": false,
          "internalType": "uint256",
          "name": "validTo",
          "type": "uint256"
        },
        {
          "indexed": false,
          "internalType": "uint256",
          "name": "previousChange",
          "type": "uint256"
        }
      ],
      "name": "DIDDelegateChanged",
      "type": "event"
    },
    {
      "anonymous": false,
      "inputs": [
        {
          "indexed": true,
          "internalType": "address",
          "name": "identity",
          "type": "address"
        },
        {
          "indexed": false,
          "internalType": "address",
          "name": "owner",
          "type": "address"
        },
        {
          "indexed": false,
          "internalType": "uint256",
          "name": "previousChange",
          "type": "uint256"
        }
      ],
      "name": "DIDOwnerChanged",
      "type": "event"
    },
    {
      "inputs": [
        {
          "internalType": "address",
          "name": "",
          "type": "address"
        }
      ],
      "name": "changed",
      "outputs": [
        {
          "internalType": "uint256",
          "name": "",
          "type": "uint256"
        }
      ],
      "stateMutability": "view",
      "type": "function"
    },
    {
      "inputs": [
        {
          "internalType": "address",
          "name": "",
          "type": "address"
        },
        {
          "internalType": "bytes32",
          "name": "",
          "type": "bytes32"
        },
        {
          "internalType": "address",
          "name": "",
          "type": "address"
        }
      ],
      "name": "delegates",
      "outputs": [
        {
          "internalType": "uint256",
          "name": "",
          "type": "uint256"
        }
      ],
      "stateMutability": "view",
      "type": "function"
    },
    {
      "inputs": [
        {
          "internalType": "address",
          "name": "",
          "type": "address"
        }
      ],
      "name": "nonce",
      "outputs": [
        {
          "internalType": "uint256",
          "name": "",
          "type": "uint256"
        }
      ],
      "stateMutability": "view",
      "type": "function"
    },
    {
      "inputs": [
        {
          "internalType": "address",
          "name": "",
          "type": "address"
        }
      ],
      "name": "owners",
      "outputs": [
        {
          "internalType": "address",
          "name": "",
          "type": "address"
        }
      ],
      "stateMutability": "view",
      "type": "function"
    },
    {
      "inputs": [
        {
          "internalType": "address",
          "name": "identity",
          "type": "address"
        }
      ],
      "name": "identityOwner",
      "outputs": [
        {
          "internalType": "address",
          "name": "",
          "type": "address"
        }
      ],
      "stateMutability": "nonpayable",
      "type": "function"
    },
    {
      "inputs": [
        {
          "internalType": "address",
          "name": "identity",
          "type": "address"
        },
        {
          "internalType": "bytes32",
          "name": "delegateType",
          "type": "bytes32"
        },
        {
          "internalType": "address",
          "name": "delegate",
          "type": "address"
        }
      ],
      "name": "validDelegate",
      "outputs": [
        {
          "internalType": "bool",
          "name": "",
          "type": "bool"
        }
      ],
      "stateMutability": "view",
      "type": "function"
    },
    {
      "inputs": [
        {
          "internalType": "address",
          "name": "identity",
          "type": "address"
        },
        {
          "internalType": "address",
          "name": "newOwner",
          "type": "address"
        }
      ],
      "name": "changeOwner",
      "outputs": [],
      "stateMutability": "nonpayable",
      "type": "function"
    },
    {
      "inputs": [
        {
          "internalType": "address",
          "name": "identity",
          "type": "address"
        },
        {
          "internalType": "uint8",
          "name": "sigV",
          "type": "uint8"
        },
        {
          "internalType": "bytes32",
          "name": "sigR",
          "type": "bytes32"
        },
        {
          "internalType": "bytes32",
          "name": "sigS",
          "type": "bytes32"
        },
        {
          "internalType": "address",
          "name": "newOwner",
          "type": "address"
        }
      ],
      "name": "changeOwnerSigned",
      "outputs": [],
      "stateMutability": "nonpayable",
      "type": "function"
    },
    {
      "inputs": [
        {
          "internalType": "address",
          "name": "identity",
          "type": "address"
        },
        {
          "internalType": "bytes32",
          "name": "delegateType",
          "type": "bytes32"
        },
        {
          "internalType": "address",
          "name": "delegate",
          "type": "address"
        },
        {
          "internalType": "uint256",
          "name": "validity",
          "type": "uint256"
        }
      ],
      "name": "addDelegate",
      "outputs": [],
      "stateMutability": "nonpayable",
      "type": "function"
    },
    {
      "inputs": [
        {
          "internalType": "address",
          "name": "identity",
          "type": "address"
        },
        {
          "internalType": "uint8",
          "name": "sigV",
          "type": "uint8"
        },
        {
          "internalType": "bytes32",
          "name": "sigR",
          "type": "bytes32"
        },
        {
          "internalType": "bytes32",
          "name": "sigS",
          "type": "bytes32"
        },
        {
          "internalType": "bytes32",
          "name": "delegateType",
          "type": "bytes32"
        },
        {
          "internalType": "address",
          "name": "delegate",
          "type": "address"
        },
        {
          "internalType": "uint256",
          "name": "validity",
          "type": "uint256"
        }
      ],
      "name": "addDelegateSigned",
      "outputs": [],
      "stateMutability": "nonpayable",
      "type": "function"
    },
    {
      "inputs": [
        {
          "internalType": "address",
          "name": "identity",
          "type": "address"
        },
        {
          "internalType": "bytes32",
          "name": "delegateType",
          "type": "bytes32"
        },
        {
          "internalType": "address",
          "name": "delegate",
          "type": "address"
        }
      ],
      "name": "revokeDelegate",
      "outputs": [],
      "stateMutability": "nonpayable",
      "type": "function"
    },
    {
      "inputs": [
        {
          "internalType": "address",
          "name": "identity",
          "type": "address"
        },
        {
          "internalType": "uint8",
          "name": "sigV",
          "type": "uint8"
        },
        {
          "internalType": "bytes32",
          "name": "sigR",
          "type": "bytes32"
        },
        {
          "internalType": "bytes32",
          "name": "sigS",
          "type": "bytes32"
        },
        {
          "internalType": "bytes32",
          "name": "delegateType",
          "type": "bytes32"
        },
        {
          "internalType": "address",
          "name": "delegate",
          "type": "address"
        }
      ],
      "name": "revokeDelegateSigned",
      "outputs": [],
      "stateMutability": "nonpayable",
      "type": "function"
    },
    {
      "inputs": [
        {
          "internalType": "address",
          "name": "identity",
          "type": "address"
        },
        {
          "internalType": "bytes32",
          "name": "name",
          "type": "bytes32"
        },
        {
          "internalType": "bytes",
          "name": "value",
          "type": "bytes"
        },
        {
          "internalType": "uint256",
          "name": "validity",
          "type": "uint256"
        }
      ],
      "name": "setAttribute",
      "outputs": [],
      "stateMutability": "nonpayable",
      "type": "function"
    },
    {
      "inputs": [
        {
          "internalType": "address",
          "name": "identity",
          "type": "address"
        },
        {
          "internalType": "uint8",
          "name": "sigV",
          "type": "uint8"
        },
        {
          "internalType": "bytes32",
          "name": "sigR",
          "type": "bytes32"
        },
        {
          "internalType": "bytes32",
          "name": "sigS",
          "type": "bytes32"
        },
        {
          "internalType": "bytes32",
          "name": "name",
          "type": "bytes32"
        },
        {
          "internalType": "bytes",
          "name": "value",
          "type": "bytes"
        },
        {
          "internalType": "uint256",
          "name": "validity",
          "type": "uint256"
        }
      ],
      "name": "setAttributeSigned",
      "outputs": [],
      "stateMutability": "nonpayable",
      "type": "function"
    },
    {
      "inputs": [
        {
          "internalType": "address",
          "name": "identity",
          "type": "address"
        },
        {
          "internalType": "bytes32",
          "name": "name",
          "type": "bytes32"
        },
        {
          "internalType": "bytes",
          "name": "value",
          "type": "bytes"
        }
      ],
      "name": "revokeAttribute",
      "outputs": [],
      "stateMutability": "nonpayable",
      "type": "function"
    },
    {
      "inputs": [
        {
          "internalType": "address",
          "name": "identity",
          "type": "address"
        },
        {
          "internalType": "uint8",
          "name": "sigV",
          "type": "uint8"
        },
        {
          "internalType": "bytes32",
          "name": "sigR",
          "type": "bytes32"
        },
        {
          "internalType": "bytes32",
          "name": "sigS",
          "type": "bytes32"
        },
        {
          "internalType": "bytes32",
          "name": "name",
          "type": "bytes32"
        },
        {
          "internalType": "bytes",
          "name": "value",
          "type": "bytes"
        }
      ],
      "name": "revokeAttributeSigned",
      "outputs": [],
      "stateMutability": "nonpayable",
      "type": "function"
    }
  ],
  "bytecode": "0x608060405234801561001057600080fd5b50612539806100206000396000f3fe608060405234801561001057600080fd5b50600436106100ff5760003560e01c806380b29f7c11610097578063a7068d6611610066578063a7068d66146102b8578063e476af5c146102d4578063f00d4b5d146102f0578063f96d0f9f1461030c576100ff565b806380b29f7c146102345780638733d4e81461025057806393072684146102805780639c2c1b2b1461029c576100ff565b8063240cf1fa116100d3578063240cf1fa1461019c578063622b2a3c146101b857806370ae92d2146101e85780637ad4b0a414610218576100ff565b8062c023da14610104578063022914a7146101205780630d44625b14610150578063123b5e9814610180575b600080fd5b61011e60048036038101906101199190611548565b61033c565b005b61013a600480360381019061013591906115b7565b61034d565b60405161014791906115f3565b60405180910390f35b61016a6004803603810190610165919061160e565b610380565b604051610177919061167a565b60405180910390f35b61019a600480360381019061019591906116fa565b6103b2565b005b6101b660048036038101906101b191906117b8565b61045d565b005b6101d260048036038101906101cd919061160e565b610500565b6040516101df919061184e565b60405180910390f35b61020260048036038101906101fd91906115b7565b6105c6565b60405161020f919061167a565b60405180910390f35b610232600480360381019061022d9190611869565b6105de565b005b61024e6004803603810190610249919061160e565b6105f1565b005b61026a600480360381019061026591906115b7565b610602565b60405161027791906115f3565b60405180910390f35b61029a600480360381019061029591906118ec565b61073c565b005b6102b660048036038101906102b19190611979565b6107e3565b005b6102d260048036038101906102cd9190611a1b565b61088e565b005b6102ee60048036038101906102e99190611a82565b6108a1565b005b61030a60048036038101906103059190611b2b565b610948565b005b610326600480360381019061032191906115b7565b610957565b604051610333919061167a565b60405180910390f35b6103488333848461096f565b505050565b60006020528060005260406000206000915054906101000a900473ffffffffffffffffffffffffffffffffffffffff1681565b600160205282600052604060002060205281600052604060002060205280600052604060002060009250925050505481565b6000601960f81b600060f81b30600360006103cc8d610602565b73ffffffffffffffffffffffffffffffffffffffff1673ffffffffffffffffffffffffffffffffffffffff168152602001908152602001600020548b888888604051602001610422989796959493929190611d71565b6040516020818303038152906040528051906020012090506104538861044b8a8a8a8a87610ac7565b868686610bf3565b5050505050505050565b6000601960f81b600060f81b30600360006104778b610602565b73ffffffffffffffffffffffffffffffffffffffff1673ffffffffffffffffffffffffffffffffffffffff1681526020019081526020016000205489866040516020016104c996959493929190611e56565b6040516020818303038152906040528051906020012090506104f8866104f28888888887610ac7565b84610d56565b505050505050565b600080600160008673ffffffffffffffffffffffffffffffffffffffff1673ffffffffffffffffffffffffffffffffffffffff1681526020019081526020016000206000856040516020016105559190611ee0565b60405160208183030381529060405280519060200120815260200190815260200160002060008473ffffffffffffffffffffffffffffffffffffffff1673ffffffffffffffffffffffffffffffffffffffff1681526020019081526020016000205490504281119150509392505050565b60036020528060005260406000206000915090505481565b6105eb8433858585610bf3565b50505050565b6105fd83338484610f25565b505050565b6000806000808473ffffffffffffffffffffffffffffffffffffffff1673ffffffffffffffffffffffffffffffffffffffff16815260200190815260200160002060009054906101000a900473ffffffffffffffffffffffffffffffffffffffff169050600073ffffffffffffffffffffffffffffffffffffffff168173ffffffffffffffffffffffffffffffffffffffff16146106a35780915050610737565b8273ffffffffffffffffffffffffffffffffffffffff167f38a5a6e68f30ed1ab45860a4afb34bcb2fc00f22ca462d249b8a8d40cda6f7a384600260008773ffffffffffffffffffffffffffffffffffffffff1673ffffffffffffffffffffffffffffffffffffffff1681526020019081526020016000205460405161072a929190611efb565b60405180910390a2829150505b919050565b6000601960f81b600060f81b30600360006107568c610602565b73ffffffffffffffffffffffffffffffffffffffff1673ffffffffffffffffffffffffffffffffffffffff168152602001908152602001600020548a87876040516020016107aa9796959493929190611f70565b6040516020818303038152906040528051906020012090506107da876107d38989898987610ac7565b8585610f25565b50505050505050565b6000601960f81b600060f81b30600360006107fd8d610602565b73ffffffffffffffffffffffffffffffffffffffff1673ffffffffffffffffffffffffffffffffffffffff168152602001908152602001600020548b888888604051602001610853989796959493929190612048565b6040516020818303038152906040528051906020012090506108848861087c8a8a8a8a87610ac7565b868686611134565b5050505050505050565b61089b8433858585611134565b50505050565b6000601960f81b600060f81b30600360006108bb8c610602565b73ffffffffffffffffffffffffffffffffffffffff1673ffffffffffffffffffffffffffffffffffffffff168152602001908152602001600020548a878760405160200161090f9796959493929190612131565b60405160208183030381529060405280519060200120905061093f876109388989898987610ac7565b858561096f565b50505050505050565b610953823383610d56565b5050565b60026020528060005260406000206000915090505481565b838361097a82610602565b73ffffffffffffffffffffffffffffffffffffffff168173ffffffffffffffffffffffffffffffffffffffff16146109e7576040517f08c379a00000000000000000000000000000000000000000000000000000000081526004016109de90612216565b60405180910390fd5b8573ffffffffffffffffffffffffffffffffffffffff167f18ab6b2ae3d64306c00ce663125f2bd680e441a098de1635bd7ad8b0d44965e485856000600260008c73ffffffffffffffffffffffffffffffffffffffff1673ffffffffffffffffffffffffffffffffffffffff16815260200190815260200160002054604051610a7394939291906122bb565b60405180910390a243600260008873ffffffffffffffffffffffffffffffffffffffff1673ffffffffffffffffffffffffffffffffffffffff16815260200190815260200160002081905550505050505050565b60008060018387878760405160008152602001604052604051610aed9493929190612316565b6020604051602081039080840390855afa158015610b0f573d6000803e3d6000fd5b505050602060405103519050610b2487610602565b73ffffffffffffffffffffffffffffffffffffffff168173ffffffffffffffffffffffffffffffffffffffff1614610b91576040517f08c379a0000000000000000000000000000000000000000000000000000000008152600401610b88906123a7565b60405180910390fd5b600360008273ffffffffffffffffffffffffffffffffffffffff1673ffffffffffffffffffffffffffffffffffffffff1681526020019081526020016000206000815480929190610be1906123f6565b91905055508091505095945050505050565b8484610bfe82610602565b73ffffffffffffffffffffffffffffffffffffffff168173ffffffffffffffffffffffffffffffffffffffff1614610c6b576040517f08c379a0000000000000000000000000000000000000000000000000000000008152600401610c6290612216565b60405180910390fd5b8673ffffffffffffffffffffffffffffffffffffffff167f18ab6b2ae3d64306c00ce663125f2bd680e441a098de1635bd7ad8b0d44965e486868642610cb1919061243e565b600260008d73ffffffffffffffffffffffffffffffffffffffff1673ffffffffffffffffffffffffffffffffffffffff16815260200190815260200160002054604051610d019493929190612472565b60405180910390a243600260008973ffffffffffffffffffffffffffffffffffffffff1673ffffffffffffffffffffffffffffffffffffffff1681526020019081526020016000208190555050505050505050565b8282610d6182610602565b73ffffffffffffffffffffffffffffffffffffffff168173ffffffffffffffffffffffffffffffffffffffff1614610dce576040517f08c379a0000000000000000000000000000000000000000000000000000000008152600401610dc590612216565b60405180910390fd5b826000808773ffffffffffffffffffffffffffffffffffffffff1673ffffffffffffffffffffffffffffffffffffffff16815260200190815260200160002060006101000a81548173ffffffffffffffffffffffffffffffffffffffff021916908373ffffffffffffffffffffffffffffffffffffffff1602179055508473ffffffffffffffffffffffffffffffffffffffff167f38a5a6e68f30ed1ab45860a4afb34bcb2fc00f22ca462d249b8a8d40cda6f7a384600260008973ffffffffffffffffffffffffffffffffffffffff1673ffffffffffffffffffffffffffffffffffffffff16815260200190815260200160002054604051610ed2929190611efb565b60405180910390a243600260008773ffffffffffffffffffffffffffffffffffffffff1673ffffffffffffffffffffffffffffffffffffffff168152602001908152602001600020819055505050505050565b8383610f3082610602565b73ffffffffffffffffffffffffffffffffffffffff168173ffffffffffffffffffffffffffffffffffffffff1614610f9d576040517f08c379a0000000000000000000000000000000000000000000000000000000008152600401610f9490612216565b60405180910390fd5b42600160008873ffffffffffffffffffffffffffffffffffffffff1673ffffffffffffffffffffffffffffffffffffffff168152602001908152602001600020600086604051602001610ff09190611ee0565b60405160208183030381529060405280519060200120815260200190815260200160002060008573ffffffffffffffffffffffffffffffffffffffff1673ffffffffffffffffffffffffffffffffffffffff168152602001908152602001600020819055508573ffffffffffffffffffffffffffffffffffffffff167f5a5084339536bcab65f20799fcc58724588145ca054bd2be626174b27ba156f7858542600260008c73ffffffffffffffffffffffffffffffffffffffff1673ffffffffffffffffffffffffffffffffffffffff168152602001908152602001600020546040516110e094939291906124be565b60405180910390a243600260008873ffffffffffffffffffffffffffffffffffffffff1673ffffffffffffffffffffffffffffffffffffffff16815260200190815260200160002081905550505050505050565b848461113f82610602565b73ffffffffffffffffffffffffffffffffffffffff168173ffffffffffffffffffffffffffffffffffffffff16146111ac576040517f08c379a00000000000000000000000000000000000000000000000000000000081526004016111a390612216565b60405180910390fd5b82426111b8919061243e565b600160008973ffffffffffffffffffffffffffffffffffffffff1673ffffffffffffffffffffffffffffffffffffffff16815260200190815260200160002060008760405160200161120a9190611ee0565b60405160208183030381529060405280519060200120815260200190815260200160002060008673ffffffffffffffffffffffffffffffffffffffff1673ffffffffffffffffffffffffffffffffffffffff168152602001908152602001600020819055508673ffffffffffffffffffffffffffffffffffffffff167f5a5084339536bcab65f20799fcc58724588145ca054bd2be626174b27ba156f7868686426112b5919061243e565b600260008d73ffffffffffffffffffffffffffffffffffffffff1673ffffffffffffffffffffffffffffffffffffffff1681526020019081526020016000205460405161130594939291906124be565b60405180910390a243600260008973ffffffffffffffffffffffffffffffffffffffff1673ffffffffffffffffffffffffffffffffffffffff1681526020019081526020016000208190555050505050505050565b6000604051905090565b600080fd5b600080fd5b600073ffffffffffffffffffffffffffffffffffffffff82169050919050565b60006113998261136e565b9050919050565b6113a98161138e565b81146113b457600080fd5b50565b6000813590506113c6816113a0565b92915050565b6000819050919050565b6113df816113cc565b81146113ea57600080fd5b50565b6000813590506113fc816113d6565b92915050565b600080fd5b600080fd5b6000601f19601f8301169050919050565b7f4e487b7100000000000000000000000000000000000000000000000000000000600052604160045260246000fd5b6114558261140c565b810181811067ffffffffffffffff821117156114745761147361141d565b5b80604052505050565b600061148761135a565b9050611493828261144c565b919050565b600067ffffffffffffffff8211156114b3576114b261141d565b5b6114bc8261140c565b9050602081019050919050565b82818337600083830152505050565b60006114eb6114e684611498565b61147d565b90508281526020810184848401111561150757611506611407565b5b6115128482856114c9565b509392505050565b600082601f83011261152f5761152e611402565b5b813561153f8482602086016114d8565b91505092915050565b60008060006060848603121561156157611560611364565b5b600061156f868287016113b7565b9350506020611580868287016113ed565b925050604084013567ffffffffffffffff8111156115a1576115a0611369565b5b6115ad8682870161151a565b9150509250925092565b6000602082840312156115cd576115cc611364565b5b60006115db848285016113b7565b91505092915050565b6115ed8161138e565b82525050565b600060208201905061160860008301846115e4565b92915050565b60008060006060848603121561162757611626611364565b5b6000611635868287016113b7565b9350506020611646868287016113ed565b9250506040611657868287016113b7565b9150509250925092565b6000819050919050565b61167481611661565b82525050565b600060208201905061168f600083018461166b565b92915050565b600060ff82169050919050565b6116ab81611695565b81146116b657600080fd5b50565b6000813590506116c8816116a2565b92915050565b6116d781611661565b81146116e257600080fd5b50565b6000813590506116f4816116ce565b92915050565b600080600080600080600060e0888a03121561171957611718611364565b5b60006117278a828b016113b7565b97505060206117388a828b016116b9565b96505060406117498a828b016113ed565b955050606061175a8a828b016113ed565b945050608061176b8a828b016113ed565b93505060a088013567ffffffffffffffff81111561178c5761178b611369565b5b6117988a828b0161151a565b92505060c06117a98a828b016116e5565b91505092959891949750929550565b600080600080600060a086880312156117d4576117d3611364565b5b60006117e2888289016113b7565b95505060206117f3888289016116b9565b9450506040611804888289016113ed565b9350506060611815888289016113ed565b9250506080611826888289016113b7565b9150509295509295909350565b60008115159050919050565b61184881611833565b82525050565b6000602082019050611863600083018461183f565b92915050565b6000806000806080858703121561188357611882611364565b5b6000611891878288016113b7565b94505060206118a2878288016113ed565b935050604085013567ffffffffffffffff8111156118c3576118c2611369565b5b6118cf8782880161151a565b92505060606118e0878288016116e5565b91505092959194509250565b60008060008060008060c0878903121561190957611908611364565b5b600061191789828a016113b7565b965050602061192889828a016116b9565b955050604061193989828a016113ed565b945050606061194a89828a016113ed565b935050608061195b89828a016113ed565b92505060a061196c89828a016113b7565b9150509295509295509295565b600080600080600080600060e0888a03121561199857611997611364565b5b60006119a68a828b016113b7565b97505060206119b78a828b016116b9565b96505060406119c88a828b016113ed565b95505060606119d98a828b016113ed565b94505060806119ea8a828b016113ed565b93505060a06119fb8a828b016113b7565b92505060c0611a0c8a828b016116e5565b91505092959891949750929550565b60008060008060808587031215611a3557611a34611364565b5b6000611a43878288016113b7565b9450506020611a54878288016113ed565b9350506040611a65878288016113b7565b9250506060611a76878288016116e5565b91505092959194509250565b60008060008060008060c08789031215611a9f57611a9e611364565b5b6000611aad89828a016113b7565b9650506020611abe89828a016116b9565b9550506040611acf89828a016113ed565b9450506060611ae089828a016113ed565b9350506080611af189828a016113ed565b92505060a087013567ffffffffffffffff811115611b1257611b11611369565b5b611b1e89828a0161151a565b9150509295509295509295565b60008060408385031215611b4257611b41611364565b5b6000611b50858286016113b7565b9250506020611b61858286016113b7565b9150509250929050565b60007fff0000000000000000000000000000000000000000000000000000000000000082169050919050565b6000819050919050565b611bb2611bad82611b6b565b611b97565b82525050565b6000819050919050565b6000611bdd611bd8611bd38461136e565b611bb8565b61136e565b9050919050565b6000611bef82611bc2565b9050919050565b6000611c0182611be4565b9050919050565b60008160601b9050919050565b6000611c2082611c08565b9050919050565b6000611c3282611c15565b9050919050565b611c4a611c4582611bf6565b611c27565b82525050565b6000819050919050565b611c6b611c6682611661565b611c50565b82525050565b611c82611c7d8261138e565b611c27565b82525050565b600081905092915050565b7f7365744174747269627574650000000000000000000000000000000000000000600082015250565b6000611cc9600c83611c88565b9150611cd482611c93565b600c82019050919050565b6000819050919050565b611cfa611cf5826113cc565b611cdf565b82525050565b600081519050919050565b600081905092915050565b60005b83811015611d34578082015181840152602081019050611d19565b60008484015250505050565b6000611d4b82611d00565b611d558185611d0b565b9350611d65818560208601611d16565b80840191505092915050565b6000611d7d828b611ba1565b600182019150611d8d828a611ba1565b600182019150611d9d8289611c39565b601482019150611dad8288611c5a565b602082019150611dbd8287611c71565b601482019150611dcc82611cbc565b9150611dd88286611ce9565b602082019150611de88285611d40565b9150611df48284611c5a565b6020820191508190509998505050505050505050565b7f6368616e67654f776e6572000000000000000000000000000000000000000000600082015250565b6000611e40600b83611c88565b9150611e4b82611e0a565b600b82019050919050565b6000611e628289611ba1565b600182019150611e728288611ba1565b600182019150611e828287611c39565b601482019150611e928286611c5a565b602082019150611ea28285611c71565b601482019150611eb182611e33565b9150611ebd8284611c71565b601482019150819050979650505050505050565b611eda816113cc565b82525050565b6000602082019050611ef56000830184611ed1565b92915050565b6000604082019050611f1060008301856115e4565b611f1d602083018461166b565b9392505050565b7f7265766f6b6544656c6567617465000000000000000000000000000000000000600082015250565b6000611f5a600e83611c88565b9150611f6582611f24565b600e82019050919050565b6000611f7c828a611ba1565b600182019150611f8c8289611ba1565b600182019150611f9c8288611c39565b601482019150611fac8287611c5a565b602082019150611fbc8286611c71565b601482019150611fcb82611f4d565b9150611fd78285611ce9565b602082019150611fe78284611c71565b60148201915081905098975050505050505050565b7f61646444656c6567617465000000000000000000000000000000000000000000600082015250565b6000612032600b83611c88565b915061203d82611ffc565b600b82019050919050565b6000612054828b611ba1565b600182019150612064828a611ba1565b6001820191506120748289611c39565b6014820191506120848288611c5a565b6020820191506120948287611c71565b6014820191506120a382612025565b91506120af8286611ce9565b6020820191506120bf8285611c71565b6014820191506120cf8284611c5a565b6020820191508190509998505050505050505050565b7f7265766f6b654174747269627574650000000000000000000000000000000000600082015250565b600061211b600f83611c88565b9150612126826120e5565b600f82019050919050565b600061213d828a611ba1565b60018201915061214d8289611ba1565b60018201915061215d8288611c39565b60148201915061216d8287611c5a565b60208201915061217d8286611c71565b60148201915061218c8261210e565b91506121988285611ce9565b6020820191506121a88284611d40565b915081905098975050505050505050565b600082825260208201905092915050565b7f6261645f6163746f720000000000000000000000000000000000000000000000600082015250565b60006122006009836121b9565b915061220b826121ca565b602082019050919050565b6000602082019050818103600083015261222f816121f3565b9050919050565b600082825260208201905092915050565b600061225282611d00565b61225c8185612236565b935061226c818560208601611d16565b6122758161140c565b840191505092915050565b6000819050919050565b60006122a56122a061229b84612280565b611bb8565b611661565b9050919050565b6122b58161228a565b82525050565b60006080820190506122d06000830187611ed1565b81810360208301526122e28186612247565b90506122f160408301856122ac565b6122fe606083018461166b565b95945050505050565b61231081611695565b82525050565b600060808201905061232b6000830187611ed1565b6123386020830186612307565b6123456040830185611ed1565b6123526060830184611ed1565b95945050505050565b7f6261645f7369676e617475726500000000000000000000000000000000000000600082015250565b6000612391600d836121b9565b915061239c8261235b565b602082019050919050565b600060208201905081810360008301526123c081612384565b9050919050565b7f4e487b7100000000000000000000000000000000000000000000000000000000600052601160045260246000fd5b600061240182611661565b91507fffffffffffffffffffffffffffffffffffffffffffffffffffffffffffffffff8203612433576124326123c7565b5b600182019050919050565b600061244982611661565b915061245483611661565b925082820190508082111561246c5761246b6123c7565b5b92915050565b60006080820190506124876000830187611ed1565b81810360208301526124998186612247565b90506124a8604083018561166b565b6124b5606083018461166b565b95945050505050565b60006080820190506124d36000830187611ed1565b6124e060208301866115e4565b6124ed604083018561166b565b6124fa606083018461166b565b9594505050505056fea2646970667358221220775c84eb16ac3194d204df4c9e261ee76eff84f114936b88fa0d21e927a3401364736f6c63430008110033",
  "immutableReferences": {},
  "source": "/* SPDX-License-Identifier: MIT */\r\n\r\npragma solidity ^0.8.6;\r\n\r\ncontract TradeConnectDIDRegistry {\r\n\r\n  mapping(address => address) public owners;\r\n  mapping(address => mapping(bytes32 => mapping(address => uint))) public delegates;\r\n  mapping(address => uint) public changed;\r\n  mapping(address => uint) public nonce;\r\n\r\n  modifier onlyOwner(address identity, address actor) {\r\n    require (actor == identityOwner(identity), \"bad_actor\");\r\n    _;\r\n  }\r\n\r\n  event DIDOwnerChanged(\r\n    address indexed identity,\r\n    address owner,\r\n    uint previousChange\r\n  );\r\n\r\n  event DIDDelegateChanged(\r\n    address indexed identity,\r\n    bytes32 delegateType,\r\n    address delegate,\r\n    uint validTo,\r\n    uint previousChange\r\n  );\r\n\r\n  event DIDAttributeChanged(\r\n    address indexed identity,\r\n    bytes32 name,\r\n    bytes value,\r\n    uint validTo,\r\n    uint previousChange\r\n  );\r\n\r\n  function identityOwner(address identity) public  returns(address) {\r\n     address owner = owners[identity];\r\n     \r\n     if (owner != address(0x00)) {\r\n\t   \r\n       return owner;\r\n     }     \t\r\n\t emit DIDOwnerChanged(identity, identity, changed[identity]);\t\r\n     return identity;\r\n  }\r\n\r\n  function checkSignature(address identity, uint8 sigV, bytes32 sigR, bytes32 sigS, bytes32 hash) internal returns(address) {\r\n    address signer = ecrecover(hash, sigV, sigR, sigS);\r\n    require(signer == identityOwner(identity), \"bad_signature\");\r\n    nonce[signer]++;\r\n    return signer;\r\n  }\r\n\r\n  function validDelegate(address identity, bytes32 delegateType, address delegate) public view returns(bool) {\r\n    uint validity = delegates[identity][keccak256(abi.encode(delegateType))][delegate];\r\n    return (validity > block.timestamp);\r\n  }\r\n\r\n  function changeOwner(address identity, address actor, address newOwner) internal onlyOwner(identity, actor) {\r\n    owners[identity] = newOwner;\r\n    emit DIDOwnerChanged(identity, newOwner, changed[identity]);\r\n    changed[identity] = block.number;\r\n  }\r\n\r\n  function changeOwner(address identity, address newOwner) public {\r\n    changeOwner(identity, msg.sender, newOwner);\r\n  }\r\n\r\n  function changeOwnerSigned(address identity, uint8 sigV, bytes32 sigR, bytes32 sigS, address newOwner) public {\r\n    bytes32 hash = keccak256(abi.encodePacked(bytes1(0x19), bytes1(0), this, nonce[identityOwner(identity)], identity, \"changeOwner\", newOwner));\r\n    changeOwner(identity, checkSignature(identity, sigV, sigR, sigS, hash), newOwner);\r\n  }\r\n\r\n  function addDelegate(address identity, address actor, bytes32 delegateType, address delegate, uint validity) internal onlyOwner(identity, actor) {\r\n    delegates[identity][keccak256(abi.encode(delegateType))][delegate] = block.timestamp + validity;\r\n    emit DIDDelegateChanged(identity, delegateType, delegate, block.timestamp + validity, changed[identity]);\r\n    changed[identity] = block.number;\r\n  }\r\n\r\n  function addDelegate(address identity, bytes32 delegateType, address delegate, uint validity) public {\r\n    addDelegate(identity, msg.sender, delegateType, delegate, validity);\r\n  }\r\n\r\n  function addDelegateSigned(address identity, uint8 sigV, bytes32 sigR, bytes32 sigS, bytes32 delegateType, address delegate, uint validity) public {\r\n    bytes32 hash = keccak256(abi.encodePacked(bytes1(0x19), bytes1(0), this, nonce[identityOwner(identity)], identity, \"addDelegate\", delegateType, delegate, validity));\r\n    addDelegate(identity, checkSignature(identity, sigV, sigR, sigS, hash), delegateType, delegate, validity);\r\n  }\r\n\r\n  function revokeDelegate(address identity, address actor, bytes32 delegateType, address delegate) internal onlyOwner(identity, actor) {\r\n    delegates[identity][keccak256(abi.encode(delegateType))][delegate] = block.timestamp;\r\n    emit DIDDelegateChanged(identity, delegateType, delegate, block.timestamp, changed[identity]);\r\n    changed[identity] = block.number;\r\n  }\r\n\r\n  function revokeDelegate(address identity, bytes32 delegateType, address delegate) public {\r\n    revokeDelegate(identity, msg.sender, delegateType, delegate);\r\n  }\r\n\r\n  function revokeDelegateSigned(address identity, uint8 sigV, bytes32 sigR, bytes32 sigS, bytes32 delegateType, address delegate) public {\r\n    bytes32 hash = keccak256(abi.encodePacked(bytes1(0x19), bytes1(0), this, nonce[identityOwner(identity)], identity, \"revokeDelegate\", delegateType, delegate));\r\n    revokeDelegate(identity, checkSignature(identity, sigV, sigR, sigS, hash), delegateType, delegate);\r\n  }\r\n\r\n  function setAttribute(address identity, address actor, bytes32 name, bytes memory value, uint validity ) internal onlyOwner(identity, actor) {\r\n    emit DIDAttributeChanged(identity, name, value, block.timestamp + validity, changed[identity]);\r\n    changed[identity] = block.number;\r\n  }\r\n\r\n  function setAttribute(address identity, bytes32 name, bytes memory value, uint validity) public {\r\n    setAttribute(identity, msg.sender, name, value, validity);\r\n  }\r\n\r\n  function setAttributeSigned(address identity, uint8 sigV, bytes32 sigR, bytes32 sigS, bytes32 name, bytes memory value, uint validity) public {\r\n    bytes32 hash = keccak256(abi.encodePacked(bytes1(0x19), bytes1(0), this, nonce[identityOwner(identity)], identity, \"setAttribute\", name, value, validity));\r\n    setAttribute(identity, checkSignature(identity, sigV, sigR, sigS, hash), name, value, validity);\r\n  }\r\n\r\n  function revokeAttribute(address identity, address actor, bytes32 name, bytes memory value ) internal onlyOwner(identity, actor) {\r\n    emit DIDAttributeChanged(identity, name, value, 0, changed[identity]);\r\n    changed[identity] = block.number;\r\n  }\r\n\r\n  function revokeAttribute(address identity, bytes32 name, bytes memory value) public {\r\n    revokeAttribute(identity, msg.sender, name, value);\r\n  }\r\n\r\n  function revokeAttributeSigned(address identity, uint8 sigV, bytes32 sigR, bytes32 sigS, bytes32 name, bytes memory value) public {\r\n    bytes32 hash = keccak256(abi.encodePacked(bytes1(0x19), bytes1(0), this, nonce[identityOwner(identity)], identity, \"revokeAttribute\", name, value));\r\n    revokeAttribute(identity, checkSignature(identity, sigV, sigR, sigS, hash), name, value);\r\n  }\r\n\r\n}",
  "sourcePath": "c:\\blockchain\\network-setup\\dapp\\contracts\\registry\\TradeConnectDIDRegistry.sol",
  "compiler": {
    "name": "solc",
    "version": "0.8.17+commit.8df45f5f.Emscripten.clang"
  },
  "schemaVersion": "3.4.16",
  "updatedAt": "2023-10-08T16:24:13.167Z",
  "devdoc": {
    "kind": "dev",
    "methods": {},
    "version": 1
  },
  "userdoc": {
    "kind": "user",
    "methods": {},
    "version": 1
  }
}